{
    "contractName": "MASTERSynth",
    "abi": [
        {
            "anonymous": false,
            "inputs": [
                {
                    "indexed": true,
                    "internalType": "address",
                    "name": "user",
                    "type": "address"
                },
                {
                    "indexed": true,
                    "internalType": "uint256",
                    "name": "pid",
                    "type": "uint256"
                },
                {
                    "indexed": false,
                    "internalType": "uint256",
                    "name": "amount",
                    "type": "uint256"
                }
            ],
            "name": "Deposit",
            "type": "event"
        },
        {
            "anonymous": false,
            "inputs": [
                {
                    "indexed": true,
                    "internalType": "address",
                    "name": "user",
                    "type": "address"
                },
                {
                    "indexed": true,
                    "internalType": "uint256",
                    "name": "pid",
                    "type": "uint256"
                },
                {
                    "indexed": false,
                    "internalType": "uint256",
                    "name": "amount",
                    "type": "uint256"
                }
            ],
            "name": "EmergencyWithdraw",
            "type": "event"
        },
        {
            "anonymous": false,
            "inputs": [
                {
                    "indexed": true,
                    "internalType": "address",
                    "name": "previousOwner",
                    "type": "address"
                },
                {
                    "indexed": true,
                    "internalType": "address",
                    "name": "newOwner",
                    "type": "address"
                }
            ],
            "name": "OwnershipTransferred",
            "type": "event"
        },
        {
            "anonymous": false,
            "inputs": [
                {
                    "indexed": true,
                    "internalType": "address",
                    "name": "user",
                    "type": "address"
                },
                {
                    "indexed": true,
                    "internalType": "uint256",
                    "name": "pid",
                    "type": "uint256"
                },
                {
                    "indexed": false,
                    "internalType": "uint256",
                    "name": "amount",
                    "type": "uint256"
                }
            ],
            "name": "Withdraw",
            "type": "event"
        },
        {
            "inputs": [
                {
                    "internalType": "contract IERC20",
                    "name": "_want",
                    "type": "address"
                },
                {
                    "internalType": "contract IERC20",
                    "name": "_wtoken",
                    "type": "address"
                },
                {
                    "internalType": "address",
                    "name": "_strat",
                    "type": "address"
                }
            ],
            "name": "add",
            "outputs": [],
            "stateMutability": "nonpayable",
            "type": "function"
        },
        {
            "inputs": [
                {
                    "internalType": "uint256",
                    "name": "_pid",
                    "type": "uint256"
                },
                {
                    "internalType": "uint256",
                    "name": "_amountWrapped",
                    "type": "uint256"
                }
            ],
            "name": "calculateSwapSTtoTokens",
            "outputs": [
                {
                    "internalType": "uint256",
                    "name": "",
                    "type": "uint256"
                }
            ],
            "stateMutability": "view",
            "type": "function"
        },
        {
            "inputs": [
                {
                    "internalType": "uint256",
                    "name": "_newstartBlock",
                    "type": "uint256"
                }
            ],
            "name": "changeStartBlock",
            "outputs": [],
            "stateMutability": "nonpayable",
            "type": "function"
        },
        {
            "inputs": [
                {
                    "internalType": "address",
                    "name": "_referral",
                    "type": "address"
                },
                {
                    "internalType": "uint256",
                    "name": "_pid",
                    "type": "uint256"
                },
                {
                    "internalType": "uint256",
                    "name": "_wantAmt",
                    "type": "uint256"
                }
            ],
            "name": "deposit",
            "outputs": [],
            "stateMutability": "nonpayable",
            "type": "function"
        },
        {
            "inputs": [
                {
                    "internalType": "address",
                    "name": "_referral",
                    "type": "address"
                },
                {
                    "internalType": "uint256",
                    "name": "_pid",
                    "type": "uint256"
                }
            ],
            "name": "depositAll",
            "outputs": [],
            "stateMutability": "nonpayable",
            "type": "function"
        },
        {
            "inputs": [
                {
                    "internalType": "address",
                    "name": "_user",
                    "type": "address"
                },
                {
                    "internalType": "uint256",
                    "name": "_pid",
                    "type": "uint256"
                }
            ],
            "name": "getReferral",
            "outputs": [
                {
                    "internalType": "address",
                    "name": "",
                    "type": "address"
                }
            ],
            "stateMutability": "view",
            "type": "function"
        },
        {
            "inputs": [
                {
                    "internalType": "address",
                    "name": "_user",
                    "type": "address"
                },
                {
                    "internalType": "uint256",
                    "name": "_pid",
                    "type": "uint256"
                }
            ],
            "name": "getReferralCount",
            "outputs": [
                {
                    "internalType": "uint256",
                    "name": "",
                    "type": "uint256"
                }
            ],
            "stateMutability": "view",
            "type": "function"
        },
        {
            "inputs": [
                {
                    "internalType": "address",
                    "name": "_user",
                    "type": "address"
                },
                {
                    "internalType": "uint256",
                    "name": "_pid",
                    "type": "uint256"
                }
            ],
            "name": "getReferralRewardTotal",
            "outputs": [
                {
                    "internalType": "uint256",
                    "name": "",
                    "type": "uint256"
                }
            ],
            "stateMutability": "view",
            "type": "function"
        },
        {
            "inputs": [
                {
                    "internalType": "address",
                    "name": "_token",
                    "type": "address"
                },
                {
                    "internalType": "uint256",
                    "name": "_amount",
                    "type": "uint256"
                }
            ],
            "name": "inCaseTokensGetStuck",
            "outputs": [],
            "stateMutability": "nonpayable",
            "type": "function"
        },
        {
            "inputs": [],
            "name": "owner",
            "outputs": [
                {
                    "internalType": "address",
                    "name": "",
                    "type": "address"
                }
            ],
            "stateMutability": "view",
            "type": "function"
        },
        {
            "inputs": [
                {
                    "internalType": "uint256",
                    "name": "",
                    "type": "uint256"
                }
            ],
            "name": "poolInfo",
            "outputs": [
                {
                    "internalType": "contract IERC20",
                    "name": "want",
                    "type": "address"
                },
                {
                    "internalType": "contract IERC20",
                    "name": "wtoken",
                    "type": "address"
                },
                {
                    "internalType": "address",
                    "name": "strat",
                    "type": "address"
                }
            ],
            "stateMutability": "view",
            "type": "function"
        },
        {
            "inputs": [],
            "name": "poolLength",
            "outputs": [
                {
                    "internalType": "uint256",
                    "name": "",
                    "type": "uint256"
                }
            ],
            "stateMutability": "view",
            "type": "function"
        },
        {
            "inputs": [],
            "name": "renounceOwnership",
            "outputs": [],
            "stateMutability": "nonpayable",
            "type": "function"
        },
        {
            "inputs": [
                {
                    "internalType": "uint256",
                    "name": "_pid",
                    "type": "uint256"
                },
                {
                    "internalType": "address",
                    "name": "_user",
                    "type": "address"
                }
            ],
            "name": "stakedWantTokens",
            "outputs": [
                {
                    "internalType": "uint256",
                    "name": "",
                    "type": "uint256"
                }
            ],
            "stateMutability": "view",
            "type": "function"
        },
        {
            "inputs": [],
            "name": "startBlock",
            "outputs": [
                {
                    "internalType": "uint256",
                    "name": "",
                    "type": "uint256"
                }
            ],
            "stateMutability": "view",
            "type": "function"
        },
        {
            "inputs": [
                {
                    "internalType": "address",
                    "name": "newOwner",
                    "type": "address"
                }
            ],
            "name": "transferOwnership",
            "outputs": [],
            "stateMutability": "nonpayable",
            "type": "function"
        },
        {
            "inputs": [
                {
                    "internalType": "uint256",
                    "name": "",
                    "type": "uint256"
                },
                {
                    "internalType": "address",
                    "name": "",
                    "type": "address"
                }
            ],
            "name": "userInfo",
            "outputs": [
                {
                    "internalType": "address",
                    "name": "referrer",
                    "type": "address"
                },
                {
                    "internalType": "uint256",
                    "name": "deposited",
                    "type": "uint256"
                },
                {
                    "internalType": "uint256",
                    "name": "refferals",
                    "type": "uint256"
                },
                {
                    "internalType": "uint256",
                    "name": "totalBonus",
                    "type": "uint256"
                }
            ],
            "stateMutability": "view",
            "type": "function"
        },
        {
            "inputs": [
                {
                    "internalType": "uint256",
                    "name": "_pid",
                    "type": "uint256"
                },
                {
                    "internalType": "uint256",
                    "name": "_wantAmt",
                    "type": "uint256"
                }
            ],
            "name": "withdraw",
            "outputs": [],
            "stateMutability": "nonpayable",
            "type": "function"
        },
        {
            "inputs": [
                {
                    "internalType": "uint256",
                    "name": "_pid",
                    "type": "uint256"
                }
            ],
            "name": "withdrawAll",
            "outputs": [],
            "stateMutability": "nonpayable",
            "type": "function"
        }
    ],
    "bytecode": "608060405263012757f060025534801561001857600080fd5b506000610023610076565b600080546001600160a01b0319166001600160a01b0383169081178255604051929350917f8be0079c531659141344cd1fd0a4f28419497f9722a3daafe3b4186f6b6457e0908290a3506001805561007a565b3390565b611cf6806100896000396000f3fe608060405234801561001057600080fd5b50600436106101215760003560e01c806377086d8e116100ad578063a693686f11610071578063a693686f14610350578063ba8156f214610388578063c6d758cb146103b4578063f2fde38b146103e0578063f4e5138f1461040657610121565b806377086d8e146102805780637b84daec146102a35780638da5cb5b146102cf57806393f1a40b146102d7578063958e2d311461033357610121565b8063441a3e70116100f4578063441a3e701461020457806348cd4cb1146102275780634be45e841461022f5780635437f0981461025b578063715018a61461027857610121565b8063081e3eda146101265780630efe6a8b146101405780631526fe27146101745780631bce9dad146101bc575b600080fd5b61012e610432565b60408051918252519081900360200190f35b6101726004803603606081101561015657600080fd5b506001600160a01b038135169060208101359060400135610438565b005b6101916004803603602081101561018a57600080fd5b5035610711565b604080516001600160a01b039485168152928416602084015292168183015290519081900360600190f35b6101e8600480360360408110156101d257600080fd5b506001600160a01b038135169060200135610750565b604080516001600160a01b039092168252519081900360200190f35b6101726004803603604081101561021a57600080fd5b508035906020013561077c565b61012e610d7c565b61012e6004803603604081101561024557600080fd5b506001600160a01b038135169060200135610d82565b6101726004803603602081101561027157600080fd5b5035610dac565b610172610df9565b61012e6004803603604081101561029657600080fd5b5080359060200135610e9b565b61012e600480360360408110156102b957600080fd5b50803590602001356001600160a01b0316610fdd565b6101e861108c565b610303600480360360408110156102ed57600080fd5b50803590602001356001600160a01b031661109b565b604080516001600160a01b0390951685526020850193909352838301919091526060830152519081900360800190f35b6101726004803603602081101561034957600080fd5b50356110d7565b6101726004803603606081101561036657600080fd5b506001600160a01b03813581169160208101358216916040909101351661117f565b61012e6004803603604081101561039e57600080fd5b506001600160a01b0381351690602001356112b0565b610172600480360360408110156103ca57600080fd5b506001600160a01b0381351690602001356112da565b610172600480360360208110156103f657600080fd5b50356001600160a01b0316611346565b6101726004803603604081101561041c57600080fd5b506001600160a01b03813516906020013561143e565b60035490565b60026001541415610490576040805162461bcd60e51b815260206004820152601f60248201527f5265656e7472616e637947756172643a207265656e7472616e742063616c6c00604482015290519081900360640190fd5b60026001819055544310156104ec576040805162461bcd60e51b815260206004820152601c60248201527f636f6e747261637420646f6573206e6f74206c61756e63682079657400000000604482015290519081900360640190fd5b6000600383815481106104fb57fe5b6000918252602080832086845260048252604080852033865290925292206003909102909101915082156106cf5761053385856114e3565b815461054a906001600160a01b03163330866115a4565b60028201548254610568916001600160a01b039182169116856115fe565b60006003858154811061057757fe5b6000918252602080832060026003909302019190910154604080516311f9fbc960e21b81523360048201526024810189905290516001600160a01b03909216936347e7ef249360448084019491939192918390030190829087803b1580156105de57600080fd5b505af11580156105f2573d6000803e3d6000fd5b505050506040513d602081101561060857600080fd5b50516001840154604080516370a0823160e01b815230600482015290519293506000926001600160a01b03909216916370a0823191602480820192602092909190829003018186803b15801561065d57600080fd5b505afa158015610671573d6000803e3d6000fd5b505050506040513d602081101561068757600080fd5b50519050811580159061069a5750600081115b156106b85760018401546106b8906001600160a01b031633836116e9565b60018301546106c7908661173b565b600184015550505b604080518481529051859133917f90890809c654f11d6e72a28fa60149770a0d11ec6c92319d6ceb2bb0a4ea1a159181900360200190a3505060018055505050565b6003818154811061071e57fe5b60009182526020909120600390910201805460018201546002909201546001600160a01b039182169350918116911683565b60008181526004602090815260408083206001600160a01b038087168552925290912054165b92915050565b600260015414156107d4576040805162461bcd60e51b815260206004820152601f60248201527f5265656e7472616e637947756172643a207265656e7472616e742063616c6c00604482015290519081900360640190fd5b60026001819055506000600383815481106107eb57fe5b60009182526020808320868452600480835260408086203387528452808620600395909502909201600281015483516318160ddd60e01b815293519197509495946001600160a01b0316936318160ddd938084019391929190829003018186803b15801561085857600080fd5b505afa15801561086c573d6000803e3d6000fd5b505050506040513d602081101561088257600080fd5b50516001840154604080516370a0823160e01b815233600482015290519293506000926001600160a01b03909216916370a0823191602480820192602092909190829003018186803b1580156108d757600080fd5b505afa1580156108eb573d6000803e3d6000fd5b505050506040513d602081101561090157600080fd5b50516002850154604080516342da4eb360e01b815290519293506000926001600160a01b03909216916342da4eb391600480820192602092909190829003018186803b15801561095057600080fd5b505afa158015610964573d6000803e3d6000fd5b505050506040513d602081101561097a57600080fd5b50519050816109c3576040805162461bcd60e51b815260206004820152601060248201526f07573657253546f6b656e7320697320360841b604482015290519081900360640190fd5b60008311610a0b576040805162461bcd60e51b815260206004820152601060248201526f0746f74616c537570706c7920697320360841b604482015290519081900360640190fd5b6000610a178888610e9b565b90506000808660010154831115610a75576001870154610a3890849061179c565b87549092506001600160a01b031615610a7557610a626103e8610a5c8460326117de565b90611837565b9050610a7284610a5c83896117de565b90505b6001880154610a8f906001600160a01b031633308c6115a4565b60028801546001890154610ab0916001600160a01b0391821691168b6115fe565b8015610ac357610ac0898261179c565b98505b600060038b81548110610ad257fe5b60009182526020808320600260039093020191909101546040805163f3fef3a360e01b8152336004820152602481018f905290516001600160a01b039092169363f3fef3a39360448084019491939192918390030190829087803b158015610b3957600080fd5b505af1158015610b4d573d6000803e3d6000fd5b505050506040513d6020811015610b6357600080fd5b505160018a0154604080516370a0823160e01b815230600482015290519293506000926001600160a01b03909216916370a0823191602480820192602092909190829003018186803b158015610bb857600080fd5b505afa158015610bcc573d6000803e3d6000fd5b505050506040513d6020811015610be257600080fd5b505190508015610c6357885460018b0154610c0a916001600160a01b039182169116836116e9565b60008c81526004602090815260408083208c546001600160a01b03168452909152902060030154610c3b908261173b565b60008d81526004602090815260408083208d546001600160a01b031684529091529020600301555b8954604080516370a0823160e01b815230600482015290516000926001600160a01b0316916370a08231916024808301926020929190829003018186803b158015610cad57600080fd5b505afa158015610cc1573d6000803e3d6000fd5b505050506040513d6020811015610cd757600080fd5b505190508215801590610cea5750600081115b15610d32578960010154811115610d0757600060018b0155610d1c565b60018a0154610d16908261179c565b60018b01555b8a54610d32906001600160a01b031633836116e9565b6040805182815290518e9133917ff279e6a1f5e320cca91135676d9cb6e44ca8a08c0b88342bcdb1144f6511b5689181900360200190a35050600180555050505050505050505050565b60025481565b60009081526004602090815260408083206001600160a01b03949094168352929052206002015490565b6002544310610df4576040805162461bcd60e51b815260206004820152600f60248201526e636f6e74726163742061637469766560881b604482015290519081900360640190fd5b600255565b610e01611879565b6000546001600160a01b03908116911614610e51576040805162461bcd60e51b81526020600482018190526024820152600080516020611c77833981519152604482015290519081900360640190fd5b600080546040516001600160a01b03909116907f8be0079c531659141344cd1fd0a4f28419497f9722a3daafe3b4186f6b6457e0908390a3600080546001600160a01b0319169055565b60008060038481548110610eab57fe5b9060005260206000209060030201905060008160020160009054906101000a90046001600160a01b03166001600160a01b03166318160ddd6040518163ffffffff1660e01b815260040160206040518083038186803b158015610f0d57600080fd5b505afa158015610f21573d6000803e3d6000fd5b505050506040513d6020811015610f3757600080fd5b50516002830154604080516342da4eb360e01b815290519293506000926001600160a01b03909216916342da4eb391600480820192602092909190829003018186803b158015610f8657600080fd5b505afa158015610f9a573d6000803e3d6000fd5b505050506040513d6020811015610fb057600080fd5b5051905081610fc55760009350505050610776565b610fd382610a5c87846117de565b9695505050505050565b60008060038481548110610fed57fe5b600091825260208083206003929092029091016001810154604080516370a0823160e01b81526001600160a01b03898116600483015291519396509116926370a0823192602480840193829003018186803b15801561104b57600080fd5b505afa15801561105f573d6000803e3d6000fd5b505050506040513d602081101561107557600080fd5b505190506110838582610e9b565b95945050505050565b6000546001600160a01b031690565b600460209081526000928352604080842090915290825290208054600182015460028301546003909301546001600160a01b0390921692909184565b6000600382815481106110e657fe5b6000918252602091829020600160039092020190810154604080516370a0823160e01b8152336004820152905192945061117b9386936001600160a01b03909316926370a08231926024808201939291829003018186803b15801561114a57600080fd5b505afa15801561115e573d6000803e3d6000fd5b505050506040513d602081101561117457600080fd5b505161077c565b5050565b611187611879565b6000546001600160a01b039081169116146111d7576040805162461bcd60e51b81526020600482018190526024820152600080516020611c77833981519152604482015290519081900360640190fd5b604080516060810182526001600160a01b03948516815292841660208401908152918416908301908152600380546001810182556000829052935193027fc2575a0e9e593c00f959f8c92f12db2869c3395a3b0502d05e2516446f71f85b810180549486166001600160a01b031995861617905591517fc2575a0e9e593c00f959f8c92f12db2869c3395a3b0502d05e2516446f71f85c83018054918616918516919091179055517fc2575a0e9e593c00f959f8c92f12db2869c3395a3b0502d05e2516446f71f85d9091018054919093169116179055565b60009081526004602090815260408083206001600160a01b03949094168352929052206003015490565b6112e2611879565b6000546001600160a01b03908116911614611332576040805162461bcd60e51b81526020600482018190526024820152600080516020611c77833981519152604482015290519081900360640190fd5b61117b6001600160a01b03831633836116e9565b61134e611879565b6000546001600160a01b0390811691161461139e576040805162461bcd60e51b81526020600482018190526024820152600080516020611c77833981519152604482015290519081900360640190fd5b6001600160a01b0381166113e35760405162461bcd60e51b8152600401808060200182810382526026815260200180611c0a6026913960400191505060405180910390fd5b600080546040516001600160a01b03808516939216917f8be0079c531659141344cd1fd0a4f28419497f9722a3daafe3b4186f6b6457e091a3600080546001600160a01b0319166001600160a01b0392909216919091179055565b60006003828154811061144d57fe5b60009182526020918290206003909102018054604080516370a0823160e01b815233600482015290519294506114de93879387936001600160a01b0316926370a08231926024808301939192829003018186803b1580156114ad57600080fd5b505afa1580156114c1573d6000803e3d6000fd5b505050506040513d60208110156114d757600080fd5b5051610438565b505050565b6000818152600460209081526040808320338452909152902080546001600160a01b03166114de576001600160a01b03831633146115355780546001600160a01b0319166001600160a01b0384161781555b80546001600160a01b0316801561159e5760008381526004602090815260408083206001600160a01b038516845290915290206002015461157790600161173b565b60008481526004602090815260408083206001600160a01b03861684529091529020600201555b50505050565b604080516001600160a01b0380861660248301528416604482015260648082018490528251808303909101815260849091019091526020810180516001600160e01b03166323b872dd60e01b17905261159e90859061187d565b600061169482856001600160a01b031663dd62ed3e30876040518363ffffffff1660e01b815260040180836001600160a01b03168152602001826001600160a01b031681526020019250505060206040518083038186803b15801561166257600080fd5b505afa158015611676573d6000803e3d6000fd5b505050506040513d602081101561168c57600080fd5b50519061173b565b604080516001600160a01b038616602482015260448082018490528251808303909101815260649091019091526020810180516001600160e01b031663095ea7b360e01b17905290915061159e90859061187d565b604080516001600160a01b038416602482015260448082018490528251808303909101815260649091019091526020810180516001600160e01b031663a9059cbb60e01b1790526114de90849061187d565b600082820183811015611795576040805162461bcd60e51b815260206004820152601b60248201527f536166654d6174683a206164646974696f6e206f766572666c6f770000000000604482015290519081900360640190fd5b9392505050565b600061179583836040518060400160405280601e81526020017f536166654d6174683a207375627472616374696f6e206f766572666c6f77000081525061192e565b6000826117ed57506000610776565b828202828482816117fa57fe5b04146117955760405162461bcd60e51b8152600401808060200182810382526021815260200180611c566021913960400191505060405180910390fd5b600061179583836040518060400160405280601a81526020017f536166654d6174683a206469766973696f6e206279207a65726f0000000000008152506119c5565b3390565b60606118d2826040518060400160405280602081526020017f5361666545524332303a206c6f772d6c6576656c2063616c6c206661696c6564815250856001600160a01b0316611a2a9092919063ffffffff16565b8051909150156114de578080602001905160208110156118f157600080fd5b50516114de5760405162461bcd60e51b815260040180806020018281038252602a815260200180611c97602a913960400191505060405180910390fd5b600081848411156119bd5760405162461bcd60e51b81526004018080602001828103825283818151815260200191508051906020019080838360005b8381101561198257818101518382015260200161196a565b50505050905090810190601f1680156119af5780820380516001836020036101000a031916815260200191505b509250505060405180910390fd5b505050900390565b60008183611a145760405162461bcd60e51b815260206004820181815283516024840152835190928392604490910191908501908083836000831561198257818101518382015260200161196a565b506000838581611a2057fe5b0495945050505050565b6060611a398484600085611a41565b949350505050565b606082471015611a825760405162461bcd60e51b8152600401808060200182810382526026815260200180611c306026913960400191505060405180910390fd5b611a8b85611b9d565b611adc576040805162461bcd60e51b815260206004820152601d60248201527f416464726573733a2063616c6c20746f206e6f6e2d636f6e7472616374000000604482015290519081900360640190fd5b60006060866001600160a01b031685876040518082805190602001908083835b60208310611b1b5780518252601f199092019160209182019101611afc565b6001836020036101000a03801982511681845116808217855250505050505090500191505060006040518083038185875af1925050503d8060008114611b7d576040519150601f19603f3d011682016040523d82523d6000602084013e611b82565b606091505b5091509150611b92828286611ba3565b979650505050505050565b3b151590565b60608315611bb2575081611795565b825115611bc25782518084602001fd5b60405162461bcd60e51b815260206004820181815284516024840152845185939192839260440191908501908083836000831561198257818101518382015260200161196a56fe4f776e61626c653a206e6577206f776e657220697320746865207a65726f2061646472657373416464726573733a20696e73756666696369656e742062616c616e636520666f722063616c6c536166654d6174683a206d756c7469706c69636174696f6e206f766572666c6f774f776e61626c653a2063616c6c6572206973206e6f7420746865206f776e65725361666545524332303a204552433230206f7065726174696f6e20646964206e6f742073756363656564a2646970667358221220cac24b1e5622df01ee8905b6e7bc19511970fcc9e82bc18ec50962e22e27430664736f6c634300060c0033",
    "sourcePath": "e:/El Lolo/Documents/RetroFarmsV3/Mainnet/Reparando Observaciones/NativeFarm.sol",
    "compiler": {
        "name": "solc",
        "version": "0.6.12+commit.27d51765"
    },
    "functionHashes": {
        "add(address,address,address)": "a693686f",
        "calculateSwapSTtoTokens(uint256,uint256)": "77086d8e",
        "changeStartBlock(uint256)": "5437f098",
        "deposit(address,uint256,uint256)": "0efe6a8b",
        "depositAll(address,uint256)": "f4e5138f",
        "getReferral(address,uint256)": "1bce9dad",
        "getReferralCount(address,uint256)": "4be45e84",
        "getReferralRewardTotal(address,uint256)": "ba8156f2",
        "inCaseTokensGetStuck(address,uint256)": "c6d758cb",
        "owner()": "8da5cb5b",
        "poolInfo(uint256)": "1526fe27",
        "poolLength()": "081e3eda",
        "renounceOwnership()": "715018a6",
        "stakedWantTokens(uint256,address)": "7b84daec",
        "startBlock()": "48cd4cb1",
        "transferOwnership(address)": "f2fde38b",
        "userInfo(uint256,address)": "93f1a40b",
        "withdraw(uint256,uint256)": "441a3e70",
        "withdrawAll(uint256)": "958e2d31"
    },
    "gasEstimates": {
        "creation": {
            "codeDepositCost": "1482800",
            "executionCost": "63995",
            "totalCost": "1546795"
        },
        "external": {
            "add(address,address,address)": "infinite",
            "calculateSwapSTtoTokens(uint256,uint256)": "infinite",
            "changeStartBlock(uint256)": "21100",
            "deposit(address,uint256,uint256)": "infinite",
            "depositAll(address,uint256)": "infinite",
            "getReferral(address,uint256)": "1354",
            "getReferralCount(address,uint256)": "1305",
            "getReferralRewardTotal(address,uint256)": "1282",
            "inCaseTokensGetStuck(address,uint256)": "infinite",
            "owner()": "1104",
            "poolInfo(uint256)": "3745",
            "poolLength()": "1022",
            "renounceOwnership()": "infinite",
            "stakedWantTokens(uint256,address)": "infinite",
            "startBlock()": "1043",
            "transferOwnership(address)": "infinite",
            "userInfo(uint256,address)": "3850",
            "withdraw(uint256,uint256)": "infinite",
            "withdrawAll(uint256)": "infinite"
        },
        "internal": {
            "addReferral(address,uint256)": "infinite"
        }
    }
}